{
  "transactions": [
    {
      "hash": "0xcb0fecff2757efbb3654d4e93e4b0419ac479d8df7adbf4a90c5d078ed1c18c5",
      "transactionType": "CALL",
      "contractName": null,
      "contractAddress": "0x779877a7b0d9e8603169ddbd7836e478b4624789",
      "function": "transferAndCall(address,uint256,bytes)",
      "arguments": [
        "0x9DdfaCa8183c41ad55329BdeeD9F6A8d53168B1B",
        "3000000000000000000",
        "0x0c2efc3ee91d36438526921410238fe550eb7da0f30605380410132beaebd1e0"
      ],
      "transaction": {
        "from": "0x7b0539fabfa6947a283060d8dfd0ea7b25a60d85",
        "to": "0x779877a7b0d9e8603169ddbd7836e478b4624789",
        "gas": "0x1c1ff",
        "value": "0x0",
        "input": "0x4000aea00000000000000000000000009ddfaca8183c41ad55329bdeed9f6a8d53168b1b00000000000000000000000000000000000000000000000029a2241af62c0000000000000000000000000000000000000000000000000000000000000000006000000000000000000000000000000000000000000000000000000000000000200c2efc3ee91d36438526921410238fe550eb7da0f30605380410132beaebd1e0",
        "nonce": "0x13",
        "chainId": "0xaa36a7"
      },
      "additionalContracts": [],
      "isFixedGasLimit": false
    }
  ],
  "receipts": [
    {
      "status": "0x1",
      "cumulativeGasUsed": "0xb1bd28",
      "logs": [
        {
          "address": "0x779877a7b0d9e8603169ddbd7836e478b4624789",
          "topics": [
            "0xddf252ad1be2c89b69c2b068fc378daa952ba7f163c4a11628f55a4df523b3ef",
            "0x0000000000000000000000007b0539fabfa6947a283060d8dfd0ea7b25a60d85",
            "0x0000000000000000000000009ddfaca8183c41ad55329bdeed9f6a8d53168b1b"
          ],
          "data": "0x00000000000000000000000000000000000000000000000029a2241af62c0000",
          "blockHash": "0x9aaa711070bb2429bd5b43a3d0dc846f40b3ab410de701e194cc56755e6c2875",
          "blockNumber": "0x6d6c41",
          "transactionHash": "0xcb0fecff2757efbb3654d4e93e4b0419ac479d8df7adbf4a90c5d078ed1c18c5",
          "transactionIndex": "0x12e",
          "logIndex": "0x4f",
          "removed": false
        },
        {
          "address": "0x779877a7b0d9e8603169ddbd7836e478b4624789",
          "topics": [
            "0xe19260aff97b920c7df27010903aeb9c8d2be5d310a2c67824cf3f15396e4c16",
            "0x0000000000000000000000007b0539fabfa6947a283060d8dfd0ea7b25a60d85",
            "0x0000000000000000000000009ddfaca8183c41ad55329bdeed9f6a8d53168b1b"
          ],
          "data": "0x00000000000000000000000000000000000000000000000029a2241af62c0000000000000000000000000000000000000000000000000000000000000000004000000000000000000000000000000000000000000000000000000000000000200c2efc3ee91d36438526921410238fe550eb7da0f30605380410132beaebd1e0",
          "blockHash": "0x9aaa711070bb2429bd5b43a3d0dc846f40b3ab410de701e194cc56755e6c2875",
          "blockNumber": "0x6d6c41",
          "transactionHash": "0xcb0fecff2757efbb3654d4e93e4b0419ac479d8df7adbf4a90c5d078ed1c18c5",
          "transactionIndex": "0x12e",
          "logIndex": "0x50",
          "removed": false
        },
        {
          "address": "0x9ddfaca8183c41ad55329bdeed9f6a8d53168b1b",
          "topics": [
            "0x1ced9348ff549fceab2ac57cd3a9de38edaaab274b725ee82c23e8fc8c4eec7a",
            "0x0c2efc3ee91d36438526921410238fe550eb7da0f30605380410132beaebd1e0"
          ],
          "data": "0x000000000000000000000000000000000000000000000000000000000000000000000000000000000000000000000000000000000000000029a2241af62c0000",
          "blockHash": "0x9aaa711070bb2429bd5b43a3d0dc846f40b3ab410de701e194cc56755e6c2875",
          "blockNumber": "0x6d6c41",
          "transactionHash": "0xcb0fecff2757efbb3654d4e93e4b0419ac479d8df7adbf4a90c5d078ed1c18c5",
          "transactionIndex": "0x12e",
          "logIndex": "0x51",
          "removed": false
        }
      ],
      "logsBloom": "0x00000004000000000000000000000000000000400020000000000000020000000000000000000000000000000000000000000000000000000000000000100000000000000000000000000088000000000000000000000000000020400020000008000000000000000000000000000000000000000000000000000010000040000000000000000000000000010000800000000020000000000000000000000000000000000000000000000000010000000000000000000000000004000000000000000002000100000000000000000000000000000000000100000000000000000010000000000000800000000000000000000000000000002000000000000000",
      "type": "0x2",
      "transactionHash": "0xcb0fecff2757efbb3654d4e93e4b0419ac479d8df7adbf4a90c5d078ed1c18c5",
      "transactionIndex": "0x12e",
      "blockHash": "0x9aaa711070bb2429bd5b43a3d0dc846f40b3ab410de701e194cc56755e6c2875",
      "blockNumber": "0x6d6c41",
      "gasUsed": "0x133b1",
      "effectiveGasPrice": "0xc7749ee8",
      "from": "0x7b0539fabfa6947a283060d8dfd0ea7b25a60d85",
      "to": "0x779877a7b0d9e8603169ddbd7836e478b4624789",
      "contractAddress": null
    }
  ],
  "libraries": [],
  "pending": [],
  "returns": {},
  "timestamp": 1732811846,
  "chain": 11155111,
  "commit": "7f707c0"
}